{
  "contractName": "OnboardingService",
  "abi": [
    {
      "anonymous": false,
      "inputs": [
        {
          "indexed": true,
          "internalType": "address",
          "name": "userAddress",
          "type": "address"
        }
      ],
      "name": "UserLoggedIn",
      "type": "event"
    },
    {
      "anonymous": false,
      "inputs": [
        {
          "indexed": true,
          "internalType": "address",
          "name": "userAddress",
          "type": "address"
        },
        {
          "indexed": false,
          "internalType": "string",
          "name": "username",
          "type": "string"
        }
      ],
      "name": "UserRegistered",
      "type": "event"
    },
    {
      "inputs": [
        {
          "internalType": "address",
          "name": "",
          "type": "address"
        }
      ],
      "name": "users",
      "outputs": [
        {
          "internalType": "string",
          "name": "username",
          "type": "string"
        },
        {
          "internalType": "bytes32",
          "name": "passwordHash",
          "type": "bytes32"
        },
        {
          "internalType": "bool",
          "name": "registered",
          "type": "bool"
        }
      ],
      "stateMutability": "view",
      "type": "function",
      "constant": true
    },
    {
      "inputs": [
        {
          "internalType": "string",
          "name": "_username",
          "type": "string"
        },
        {
          "internalType": "string",
          "name": "_password",
          "type": "string"
        }
      ],
      "name": "registerUser",
      "outputs": [],
      "stateMutability": "nonpayable",
      "type": "function"
    },
    {
      "inputs": [
        {
          "internalType": "string",
          "name": "_username",
          "type": "string"
        },
        {
          "internalType": "string",
          "name": "_password",
          "type": "string"
        }
      ],
      "name": "login",
      "outputs": [
        {
          "internalType": "bool",
          "name": "",
          "type": "bool"
        }
      ],
      "stateMutability": "nonpayable",
      "type": "function"
    }
  ],
  "bytecode": "0x608060405234801561001057600080fd5b5061076a806100206000396000f3fe608060405234801561001057600080fd5b50600436106100415760003560e01c80631d2e4afd1461004657806358467dbc1461005b578063a87430ba14610083575b600080fd5b61005961005436600461045e565b6100a5565b005b61006e61006936600461045e565b6101b0565b60405190151581526020015b60405180910390f35b6100966100913660046104c2565b61030d565b60405161007a93929190610538565b3360009081526020819052604090206002015460ff161561010d5760405162461bcd60e51b815260206004820152601760248201527f5573657220616c7265616479207265676973746572656400000000000000000060448201526064015b60405180910390fd5b8051602080830191909120604080516060810182528581528084018390526001818301523360009081529384905292208251919291819061014e90826105eb565b50602082015160018201556040918201516002909101805460ff19169115159190911790555133907f48cac28ad4dc618e15f4c2dd5e97751182f166de97b25618318b2112aa951a2f906101a39086906106ab565b60405180910390a2505050565b3360009081526020819052604081206002015460ff166102085760405162461bcd60e51b8152602060048201526013602482015272155cd95c881b9bdd081c9959da5cdd195c9959606a1b6044820152606401610104565b81516020808401919091203360009081529182905260409091206001015481146102695760405162461bcd60e51b8152602060048201526012602482015271125b98dbdc9c9958dd081c185cdcdddbdc9960721b6044820152606401610104565b3360009081526020819052604090819020905161028691906106be565b60405180910390208480519060200120146102d85760405162461bcd60e51b8152602060048201526012602482015271496e636f727265637420757365726e616d6560701b6044820152606401610104565b60405133907f8d15fde878cff665868ed7579eb5081db6508d4249df61dcdd7699a5301d987490600090a25060019392505050565b60006020819052908152604090208054819061032890610562565b80601f016020809104026020016040519081016040528092919081815260200182805461035490610562565b80156103a15780601f10610376576101008083540402835291602001916103a1565b820191906000526020600020905b81548152906001019060200180831161038457829003601f168201915b50505050600183015460029093015491929160ff16905083565b634e487b7160e01b600052604160045260246000fd5b600082601f8301126103e257600080fd5b813567ffffffffffffffff808211156103fd576103fd6103bb565b604051601f8301601f19908116603f01168101908282118183101715610425576104256103bb565b8160405283815286602085880101111561043e57600080fd5b836020870160208301376000602085830101528094505050505092915050565b6000806040838503121561047157600080fd5b823567ffffffffffffffff8082111561048957600080fd5b610495868387016103d1565b935060208501359150808211156104ab57600080fd5b506104b8858286016103d1565b9150509250929050565b6000602082840312156104d457600080fd5b81356001600160a01b03811681146104eb57600080fd5b9392505050565b6000815180845260005b81811015610518576020818501810151868301820152016104fc565b506000602082860101526020601f19601f83011685010191505092915050565b60608152600061054b60608301866104f2565b602083019490945250901515604090910152919050565b600181811c9082168061057657607f821691505b60208210810361059657634e487b7160e01b600052602260045260246000fd5b50919050565b601f8211156105e657600081815260208120601f850160051c810160208610156105c35750805b601f850160051c820191505b818110156105e2578281556001016105cf565b5050505b505050565b815167ffffffffffffffff811115610605576106056103bb565b610619816106138454610562565b8461059c565b602080601f83116001811461064e57600084156106365750858301515b600019600386901b1c1916600185901b1785556105e2565b600085815260208120601f198616915b8281101561067d5788860151825594840194600190910190840161065e565b508582101561069b5787850151600019600388901b60f8161c191681555b5050505050600190811b01905550565b6020815260006104eb60208301846104f2565b60008083546106cc81610562565b600182811680156106e457600181146106f957610728565b60ff1984168752821515830287019450610728565b8760005260208060002060005b8581101561071f5781548a820152908401908201610706565b50505082870194505b5092969550505050505056fea2646970667358221220244db82a5e5fc63e1d6afa6db41a20fe1472142b39d9f64cadbaf658bfdac75a64736f6c63430008120033",
  "immutableReferences": {},
  "source": "// SPDX-License-Identifier: MIT\r\npragma solidity ^0.8.0;\r\n\r\n// Define the contract\r\ncontract OnboardingService {\r\n\r\n    // Define a struct to store user information\r\n    struct User {\r\n        string username;        // The username of the user\r\n        bytes32 passwordHash;   // The hash of the user's password\r\n        bool registered;        // Flag indicating if the user is registered\r\n    }\r\n\r\n    // Define a mapping to store users\r\n    mapping (address => User) public users;\r\n\r\n    // Define events to emit when a user is registered or logged in\r\n    event UserRegistered(address indexed userAddress, string username);\r\n    event UserLoggedIn(address indexed userAddress);\r\n\r\n    // Define a function to register a new user\r\n    function registerUser(string memory _username, string memory _password) public {\r\n        // Make sure the user is not already registered\r\n        require(!users[msg.sender].registered, \"User already registered\");\r\n\r\n        // Hash the password\r\n        bytes32 passwordHash = keccak256(bytes(_password));\r\n\r\n        // Store the user's information\r\n        users[msg.sender] = User(_username, passwordHash, true);\r\n\r\n        // Emit an event to indicate that the user was registered\r\n        emit UserRegistered(msg.sender, _username);\r\n    }\r\n\r\n    // Define a function to log in an existing user\r\n    function login(string memory _username, string memory _password) public returns (bool) {\r\n        // Make sure the user is registered\r\n        require(users[msg.sender].registered, \"User not registered\");\r\n\r\n        // Hash the password and compare it with the stored hash\r\n        bytes32 passwordHash = keccak256(bytes(_password));\r\n        require(users[msg.sender].passwordHash == passwordHash, \"Incorrect password\");\r\n\r\n        // Compare the username with the stored username\r\n        require(keccak256(bytes(_username)) == keccak256(bytes(users[msg.sender].username)), \"Incorrect username\");\r\n\r\n        // Emit an event to indicate that the user was logged in\r\n        emit UserLoggedIn(msg.sender);\r\n\r\n        // Return true to indicate that the login was successful\r\n        return true;\r\n    }\r\n}",
  "sourcePath": "C:\\Users\\Main\\source\\repos\\carpooling-blockchain\\contracts\\OnboardingService.sol",
  "compiler": {
    "name": "solc",
    "version": "0.8.18+commit.87f61d96.Emscripten.clang"
  },
  "schemaVersion": "3.4.12",
  "updatedAt": "2023-02-22T13:25:00.266Z",
  "networkType": "ethereum",
  "devdoc": {
    "kind": "dev",
    "methods": {},
    "version": 1
  },
  "userdoc": {
    "kind": "user",
    "methods": {},
    "version": 1
  }
}